:10000000E00300106D0200001D0400001D0400004C
:1000100000000000000000000000000079F1FFEF88
:100020000000000000000000000000001D040000AF
:1000300000000000000000001D0400001D0400007E
:100040001D0400001D0400001D0400001D0400002C
:100050001D0400001D0400001D0400001D0400001C
:10006000310400001D0400001D0400001D040000F8
:100070001D0400001D0400001D0400001D040000FC
:100080001D0400001D0400001D0400001D040000EC
:100090001D0400001D0400001D0400001D040000DC
:1000A0001D0400001D0400001D0400001D040000CC
:1000B0001D0400001D0400001D0400001D040000BC
:1000C000E00F00000000001000000000E00F000042
:1000D000E00300100000000000000010B00100006C
:1000E000E0030010000000008022E0210420F8B5A9
:1000F000524D4900EB6F80271343EB67504BBF0114
:100100005E58504C3043585008205E583043585089
:10011000E96F88269143E967E96FB6011143E96702
:100120004021E86F0143E967A021102009068851AA
:10013000CE590643CE5180264349F6008F69374396
:100140008F614F693E4318274E610E69BE433043AD
:1001500008618020D96980040902090A0143FF204F
:10016000D961196A8E26153F8143394319620121ED
:10017000EB6FB6009343EB67A35934488B43A3510D
:10018000A35949188B43A351A3591E318B43002116
:10019000A3512F4B1960A35939001A43A251236C64
:1001A000226CBB431343236400F006F9236C1F4009
:1001B000012F04D0002F3ED0032F04D0FFDE2022D9
:1001C000A3591342FAD1234B5E683100224800F054
:1001D000D9FD7F22A3682049934300228E4202D892
:1001E00001381F320240402013438E2280210343F6
:1001F000A3609200A3588B43A3500123E2681A42E4
:10020000FCD0C020800000F0E1F80222134B012155
:100210001A60134800F0D0F8FF22A36F93431A002E
:1002200003231343A3672023EA6F13432122EB67C1
:100230000C4B5A61F8BD0C4EC7E7C0460480044021
:1002400000C000400080044000400440448004405E
:10025000408004400000001000366E01E080044041
:10026000E480044000000540001BB700F8B572B6FA
:100270001A4838210160144B144A15499A60154BED
:100280008B4207D3002014498B4211D362B600F091
:1002900027FDFEE700221D685F689868BE18AC184D
:1002A000904201D80C33EBE7246804323460F5E760
:1002B00000221E685C68B518944201D80833E3E751
:1002C00028600432F7E7C04600ED00E000000000BF
:1002D000D8000000C0000000E8000000200200403C
:1002E000FFFFFFFFFFFFFFFFFFFFFFFFFFFFFFFF1E
:1002F000FFFFFFFFFFFFFFFFFFFFFFFF21436587BA
:1003000010B572B6014B984762B610BDF11FFF1FC2
:10031000322330B58BB0840A050005A968460093E6
:1003200001940294FFF7ECFF059B002B05D01E4AB9
:10033000934202D000200BB030BDAB090193029371
:10034000FA233B225B0105A9684603930092FFF75D
:10035000D7FF059B002B02D0134A9342EAD13223E8
:1003600005A96846009301940294FFF7C9FF059B15
:10037000002B02D00C4A9342DCD1332300930B4B69
:100380006846029340230393094B05A90493019502
:10039000FFF7B6FF059B0120002BCCD0054A9B1828
:1003A00058425841C0B2C6E728D8FFFF0C000010E1
:1003B000490C0200D827000003688B4303600368E0
:1003C0000B43036003681942FCD0704710B5032447
:1003D000074A030A116F21408B4207D0106F012199
:1003E000A043184310670348FFF7E6FF10BDC0465F
:1003F00000800440748004400221064B1A688A433E
:100400001A6081221202DA600022034B1A705A70BD
:100410007047C046000005400000001010B572B6DD
:10042000FFF7EAFFA02301221B061A7120BFFDE798
:100430008023344A1B02516870B5194203D000244E
:10044000314804705360CB0507D50320490A0140A9
:100450002D4B03D101311970116470BD01293FD1B9
:10046000556C1978ECB2012904D15C701870012325
:100470001364F2E75978187008004E1C53385E7008
:100480000C2825D800F0B8FC07242424241B1B1BAF
:100490001B161616160099780029E8D11B4908008A
:1004A00053300470FF20486501219970BFF35F8FBE
:1004B00040BFDCE71548435C1C434454D7E713486E
:1004C00043181C79435CA54323402B434354CEE798
:1004D0005329CCD89B78002BC9D10C4B5C54C6E770
:1004E00002290CD15978481C5870542903D898789F
:1004F000FF23002801D1054B5B5C5364B7E7FFF78E
:100500008DFFC04600000540000000100C000010E8
:10051000F0B5654B93B01A689C4605925A680692EE
:100520009A680792DA6808921A6909925A690A92D7
:100530009A690B92DA69089B0C920E930C9B5B4AAA
:100540000D93079B0F920293069B01930B9B0493C1
:100550000A9B03930023099905980F241C40083433
:100560005A1C10940F2B00D96FE063461B6A1DBA0A
:10057000109B4D4E9C00A55106230C000F00DC4142
:100580000533DF413B000F0063401924E741049C21
:100590007B40039F8C430F407C401B190F9C80CCF9
:1005A000DF190D9B7F19FF180F940223040005002B
:1005B000DC410B33DD4116236C400500DD41019B1E
:1005C0006C40029D6B4003400D93019D029B1D40BA
:1005D0000D9B6B40E4180E9BFD1804233F19049CEF
:1005E0009C440D94029C13000E94402A24D1059B38
:1005F000DF19069B3760181870600198079B8446C6
:100600006344A446B360089B29486344F360099B94
:100610005D190A9B35615918716103990B9B8C46D2
:10062000049963448C46B3610C9B00216344F361DD
:1006300000F052FB13B0F0BD019A01900292039AB0
:10064000380003910492290087E70F251540164FC3
:100650000835AD00EE591D000F240E350933254035
:100660002340109C08350833A400AD009B00ED59D1
:10067000DB59E7590724DF193300E34111933300B5
:100680000B34E341119CF60863407340FF181124BA
:100690002B001326E3412C00F4412600AD0A5E40F6
:1006A00075407D1964E7C0460C010010E00E0000A3
:1006B0002C010010F7B506000D00002D00D1F7BD8C
:1006C0003F220E4F3B6E134001934023019A9C1A28
:1006D000AC4200D92C00019B0948220018183100B7
:1006E00000F002FB019B1B19402B01D1FFF710FF0B
:1006F0003B6E2D1B36191C193C66DEE70C01001001
:100700002C01001010B5FFF7D5FF10BD70B5084CD7
:10071000084B220023CB23C223CB23C203CB03C22B
:1007200040220021044800F0D7FA0023236670BD60
:100730000C010010C00E00002C01001037B56B46F4
:100740000500D81D802301210370FFF7B3FF3F236D
:100750000F4C226E1340382B01D9FFF7D9FE236EC0
:10076000013BDB001BBAE365FFF7D2FE0022A35872
:10077000A9181BBA180AAB5448700432180C1B0E87
:100780008870CB70202AF2D1FFF7C0FF37BDC0467A
:100790000C01001070B50500FFF7B8FF084C2021D0
:1007A0002000FFF787FF2000FFF7C8FF2900202265
:1007B000200000F09DFA43425841C0B270BDC046CF
:1007C0002C00001070B50400FFF7B8FF084D402161
:1007D0002800FFF76FFF20212000FFF76BFF2000AC
:1007E000FFF7ACFF28004022002100F075FA70BD31
:1007F0007001001070B50D000600FFF787FF164C62
:1008000040220021200000F067FA402D1ED9300060
:100810002900FFF74FFF2000FFF790FF250023007E
:10082000002136201A78013142401A7001334029E4
:10083000F8D12000FFF73EFF00236A212A78013318
:100840004A402A700135402BF8D170BD2A00310092
:10085000200000F049FAE1E770010010F0B597B010
:10086000FFF742FC8022C14C52000021200000F022
:1008700033FA3A2325000CA907A80793FFF740FD98
:100880002000210022000D9BF0352B600E9BF430E0
:1008900003600F9BF83101930B60109BFC321360D7
:1008A0000C9B002B08D0B24EB34205D001235B4213
:1008B0002B6003600B6013602300C322AD49002549
:1008C00054331A700A00AC4B9D70AC4BA565E565BE
:1008D00043CB43C243CB43C203CB03C2FFF78CFDE0
:1008E0008122A74B12029A6040229A643F3ADA644E
:1008F0001A655A659D65196801320A431A6080229B
:10090000A04B52001A600195A02300221B069A4FAB
:100910001A71BB78002B32D0A02301221B061A715A
:10092000019BBB60230053331D78C02D00D1DEE056
:1009300027D8A02D49D0B02D00D1B8E0002D00D08F
:10094000E22550228C4E0021B068121A201800F0C7
:10095000C3F9019B2200B360230055331D702300AF
:100960005232127857331A70019BC3222365230039
:1009700054331A70BFF35F8F019BB370C4E720BF7D
:10098000C7E7F12D00D1C7E0F22D00D153E1E02DF2
:10099000D6D1230050331E78E125022ED1D8230072
:1009A00051331F78502FCCD876019036A619FFF717
:1009B000ADFE30002021FFF77DFE20003900FFF75B
:1009C00079FE3000FFF7BAFE6FE0230051331B7849
:1009D000E1250293502BB4D8230050331D786A4B85
:1009E0000CAE9A69DB690C9203937360674B20210C
:1009F000B3606748FFF7FEFE0C213000FFF75AFE98
:100A00003000FFF7DFFE20213000FFF7F3FE72B663
:100A10005E4B0D950C936BB20EA9002B10DA2300E0
:100A2000F0331B6812A90E932300F4331B680F9355
:100A30002300F8331B6810932300FC331B681193C9
:100A40006B0604D5A36D0B60E36D4B600831AB06FC
:100A500001D5636E08C1EB0601D5236E08C162B6ED
:100A6000891B3000FFF726FE2B0703D520214148C4
:100A7000FFF720FEEB0703D520214648FFF71AFEBB
:100A8000AB0703D520214448FFF714FE6B0703D5BD
:100A900020214248FFF70EFE02992000FFF70AFED0
:100AA0002000FFF78FFE2023BB60002549E72300CD
:100AB00050331E78E125502E00D942E7324B2021D9
:100AC0001A695B69324802930D93354B0C920E9371
:100AD000FFF790FE0C210CA8FFF7ECFD0CA8FFF728
:100AE00071FE20210CA8FFF785FE3100D5E7230019
:100AF00050331B78E125012B00D922E7183322005F
:100B00009B00E1585132C84312780235824200D925
:100B100017E75218E250C8E7230050331B785C2BCC
:100B20000ED119481F4B02689A4201D0E52508E70B
:100B3000FFF7EEFB0025A84200D002E7E42500E71E
:100B40002A2B33D11848FFF725FE0028EED00B4D95
:100B50002800FFF7DDFB0028F0D0064A130007CD80
:100B600007C307CD07C306CD06C39EE70C000010E0
:100B700028D8FFFF7C00001000000010800E00004D
:100B80000000054000E100E0400E000051554F54C8
:100B9000600E00009C000010BC000010DC00001083
:100BA000484B444655EECCAAA00E0000FA2B00D0CC
:100BB0007CE03F4B1A683F4B9A4235D172B6802297
:100BC0000125D205136805ACAB431360FFF714FC95
:100BD0000020FFF7FBFBFF21374A2000936F8B4378
:100BE0002B439367392308220021079300F074F800
:100BF000A27923780CA95340A27807A85340E27841
:100C000065705340227953406279089453406B4099
:100C1000E371FFF775FBBFF34F8F284B284ADA606B
:100C2000BFF34F8FC046FDE72648FFF7B3FD00280E
:100C300000D17BE7C2E772B60020FFF7C7FBFF21B8
:100C40008E201D4A8000936F18268B43FE390B437C
:100C5000936713587F310B4313501B4BD86F0843D6
:100C6000D8678020DD6FC0022843184DD867E86A36
:100C7000B043E8621648E025844666466D00405958
:100C8000884370510126106A0643166280221205BD
:100C90007A60DA6F0F4802408020DA67DA6F40002E
:100CA0008A43DA67FFF792FB62B6FEE6E12548E683
:100CB000400E000055EECCAA0080044000ED00E09C
:100CC0000400FA05600E0000048004400040044067
:100CD00000C00040FFFFFBFF10B500F03BF810BD67
:100CE00010B5FFF7BBFD10BD10B500F01DF810BD2D
:100CF00003000B4330B59B0708D000240139A24202
:100D00000BD100200FE004300431043A032AF4D957
:100D100003680C68A342F6D0EFE7035D01340D5D74
:100D2000AB42ECD0581B30BD8446830708D18B07FB
:100D300006D1131F04D304C904C0043BFBD21A1DFF
:100D4000524205D0891A801A8B5C83540132FBD140
:100D5000604670478446043A09D3830707D10906E1
:100D60000B0A19430B0C1943043A02C0FCD204329B
:100D700003D001700130013AFBD160467047030097
:100D80000B4321D4002931D00122D207030901E00D
:100D9000090112099942FBD9430801E049005208B0
:100DA0009942FBD900E04908401A07D35241FAD3CF
:100DB00001461046704749084018F7D29218FAD3F6
:100DC0004018014610467047CB0F00D04942021030
:100DD00000D54042534008B5FFF7D4FF0CBC521079
:100DE00000D34042002A00D549421847F44600206B
:100DF00000F001F8604770478C4671460139095C84
:100E000049008E4461467047FFFFFFFFFFFFFFFF71
:100E1000FFFFFFFFFFFFFFFFFFFFFFFFFFFFFFFFE2
:100E2000FFFFFFFFFFFFFFFFFFFFFFFFFFFFFFFFD2
:100E3000FFFFFFFFFFFFFFFFFFFFFFFFFFFFFFFFC2
:100E400055EECCAA200000000000000000000000C9
:100E5000C3C3C3C3C3C3C3C33C3C3C3C3C3C3C3C9A
:100E600066687AADF862BD776C8FC18B8E9F8E20DD
:100E7000089714856EE233B3902A591D0D5F29251A
:100E8000646F6E27742066656564207468652062EF
:100E900075677321000000000000000000000000E2
:100EA00066687AADF862BD776C8FC18B8E9F8E209D
:100EB000089714856EE233B3902A591D0D5F2925DA
:100EC00067E6096A85AE67BB72F36E3C3AF54FA5DB
:100ED0007F520E518C68059BABD9831F19CDE05B07
:100EE000982F8A4291443771CFFBC0B5A5DBB5E995
:100EF0005BC25639F111F159A4823F92D55E1CAB09
:100F000098AA07D8015B8312BE853124C37D0C5596
:100F1000745DBE72FEB1DE80A706DC9B74F19BC1DE
:100F2000C1699BE48647BEEFC69DC10FCCA10C24CE
:100F30006F2CE92DAA84744ADCA9B05CDA88F976B2
:100F400052513E986DC631A8C82703B0C77F59BF1C
:100F5000F30BE0C64791A7D55163CA066729291448
:100F6000850AB72738211B2EFC6D2C4D130D3853E5
:100F700054730A65BB0A6A762EC9C281852C7292A7
:100F8000A1E8BFA24B661AA8708B4BC2A3516CC7D5
:100F900019E892D1240699D685350EF470A06A100E
:100FA00016C1A419086C371E4C774827B5BCB0345D
:100FB000B30C1C394AAAD84E4FCA9C5BF36F2E68FB
:100FC000EE828F746F63A5781478C8840802C78C8A
:100FD000FAFFBE90EB6C50A4F7A3F9BEF27871C68D
:00000001FF
