:10000000E0030010E9000000A5010000A5010000C8
:10001000000000000000000000000000EDF7FFEF0E
:10002000000000000000000000000000A50100002A
:100030000000000000000000A5010000A501000074
:10004000A5010000A5010000A5010000A501000018
:10005000A5010000A5010000A5010000A501000008
:10006000B1010000A5010000A5010000A5010000EC
:10007000A5010000A5010000A5010000A5010000E8
:10008000A5010000A5010000A5010000A5010000D8
:10009000A5010000A5010000A5010000A5010000C8
:1000A000A5010000A5010000A5010000A5010000B8
:1000B000A5010000A5010000A5010000A5010000A8
:1000C000600C00000000001000000000600C000048
:1000D000E003001000000000000000108801000094
:1000E000E003001000000000F8B572B61A4838218D
:1000F0000160144B144A15499A60154B8B4207D383
:10010000002014498B4211D362B600F0B7FCFEE721
:1001100000221D685F689868BE18AC18904201D82C
:100120000C33EBE7246804323460F5E700221E68E4
:100130005C68B518944201D80833E3E728600432BC
:10014000F7E7C04600ED00E000000000D800000026
:10015000C0000000E80000002002004010B572B6A8
:10016000014B984762B610BDF11FFF1F03688B4318
:10017000036003680B43036003681942FCD07047B7
:100180000221064B1A688A431A6081221202DA6041
:100190000022034B1A705A707047C0460000054099
:1001A0000000001010B572B6FFF7EAFF20BFFDE7B0
:1001B0008023394A1B02516870B5194203D00024CC
:1001C000364804705360CB0507D50320490A014027
:1001D000324B03D101311970116470BD01293FD137
:1001E000556C1978ECB2012904D15C7018700123A8
:1001F0001364F2E75978187008004E1C53385E708B
:100200000C2825D800F06DFC07242424241B1B1B7C
:100210001B161616160099780029E8D12049080007
:1002200053300470FF20486501219970BFF35F8F40
:1002300040BFDCE71A48435C1C434454D7E71848E6
:1002400043181C79435CA54323402B434354CEE71A
:100250005329CCD89B78002BC9D1114B5C54C6E7ED
:10026000022916D15978481C5870542908D1997818
:10027000FF23002902D10A4B54331B785364B6E79D
:100280004F2903D8987800239842F7D1044B5B5C40
:10029000F4E7FFF787FFC0460000054000000010AC
:1002A00004000010502270B50D4C0500521A0819B8
:1002B000002100F0DFFB2300220055331D702300D6
:1002C0005232127857331A700023C32223655434F4
:1002D0002270BFF35F8F034A2800937070BDC04641
:1002E000040000100000001010B50021FFF7DAFF35
:1002F00010BDF0B5644B93B01A689C4605925A68DD
:1003000006929A680792DA6808921A6909925A69FD
:100310000A929A690B92DA69089B0C920E930C9BD5
:100320005A4A0D93079B0F920293069B01930B9BD6
:1003300004930A9B03930023099905980F241C40FA
:1003400008345A1C10940F2B00D96FE063461B6AC7
:100350001DBA109B4C4E9C00A55106230C000F00AB
:10036000DC410533DF413B000F0063401924E741C6
:10037000049C7B40039F8C430F407C401B190F9CC7
:1003800080CCDF190D9B7F19FF180F940223040006
:100390000500DC410B33DD4116236C400500DD41D7
:1003A000019B6C40029D6B4003400D93019D029B9D
:1003B0001D400D9B6B40E4180E9BFD1804233F1954
:1003C000049C9C440D94029C13000E94402A24D15A
:1003D000059BDF19069B3760181870600198079B12
:1003E00084466344A446B360089B29486344F36091
:1003F000099B5D190A9B35615918716103990B9B23
:100400008C46049963448C46B3610C9B0021634481
:10041000F36100F02FFB13B0F0BD019A019002923E
:10042000039A380003910492290087E70F251540AD
:10043000154F0835AD00EE591D000F240E35093358
:1004400025402340109C08350833A400AD009B00D4
:10045000ED59DB59E7590724DF193300E3411193C4
:1004600033000B34E341119CF60863407340FF18DE
:1004700011242B001326E3412C00F4412600AD0A81
:100480005E4075407D1964E704010010600B0000B8
:1004900024010010F7B506000D00002D00D1F7BDB6
:1004A0003F230E4F2C00386E184001331B1A019366
:1004B0009D4200D91C000A4B2200C018310000F0F8
:1004C000E1FA019B1B19402B01D1FFF712FF3B6E94
:1004D0002D1B36191C193C66DFE7C04604010010CD
:1004E0002401001010B5FFF7D5FF10BD70B5084C02
:1004F000084B220023CB23C223CB23C203CB03C24E
:1005000040220021044800F0B5FA0023236670BDA4
:1005100004010010400B00002401001037B56B46A9
:100520000500D81D802301210370FFF7B3FF3F238F
:100530000F4C226E1340382B01D9FFF7DAFE236EE1
:10054000013BDB001BBAE365FFF7D3FE0022A35893
:10055000A9181BBA180AAB5448700432180C1B0EA9
:100560008870CB70202AF2D1FFF7C0FF37BDC0469C
:100570000401001070B50400FFF7D0FF084D2021E2
:100580002800FFF787FF20212000FFF783FF2000CE
:10059000FFF7C4FF28002022002100F06BFA70BD95
:1005A0006801001070B506000C00FFF79FFF184DA2
:1005B000202C1ED930002100FFF76CFF2800FFF728
:1005C000ADFF2C002B00002136201A78013142406B
:1005D0001A7001332029F8D12800FFF75BFF0023B0
:1005E0006A21227801334A4022700134202BF8D14D
:1005F00070BD22003100280000F044FA20222000C3
:10060000121B044C64300019002100F033FAD8E7C3
:100610006801001004010010F0B58025E0220421DB
:10062000D74F5200FB6F03262B43FB67D54BD64CAD
:10063000985895B001439950082198580143995012
:100640008021FA6FC900AA43FA67FA6F2A43FA6752
:10065000CE4A9069084390615069014351618021FD
:10066000DA6989041202120A0A43FF21DA611A6A5E
:10067000C7488A4332431A620122FB6F2900AB4309
:10068000B935FB67FF35635993436351635992183A
:100690009343635163591E32934300226351BD4B10
:1006A0001A6063590B436351236C226CB3431343A9
:1006B00031002364FFF75AFD236C33402600002BE2
:1006C00003D0012B00D16359FFDE7F22A36893433F
:1006D0001A00602313438022A3606359934363513C
:1006E0000123F2681A42FCD00322336F134206D072
:1006F000336F012193433367A748FFF737FD002588
:10070000A64B01211D60A648FFF730FDFF22B36F05
:10071000A44C93431A0001231343B3672023FA6FB9
:10072000A14E1343FB67802203235200290073610B
:10073000200000F09FF93A2327000AA905A8059395
:10074000FFF70CFD2000210022000B9BF0373B60DF
:100750000C9BF43003600D9BF83101930B600E9BF2
:10076000FC3213600A9B3500002B08D08F4EB34239
:1007700005D001235B423B6003600B6013602300E4
:10078000C322002654331A70894B9E70FFF7F8FC81
:1007900081231B02AB604023AB643F3BEB642B65C2
:1007A0006B65AE652A680133134380222B60814B51
:1007B00052001A60804B9B0901937F4B9E0A7C4B31
:1007C0009B78002B0CD0230053331878C02800D11D
:1007D00093E007D800282FD0A02827D0E2202BE0D4
:1007E00020BFECE7F52800D1F4E0FA2800D197E02B
:1007F000E028F3D1230050331D78022D1BD82300AD
:1008000051331F78502F16D86D0190356519FFF7B9
:100810006DFE20212800FFF73DFE20003900FFF784
:1008200039FE2800FFF77AFE002005E0230051334F
:100830001F78502F03D9E120FFF756FDBFE7202195
:1008400023005D48503340181D78FFF7ABFE72B6A9
:100850005A4B0B950A936BB20CA9002B10DA2300AC
:10086000F0331B6810A90C932300F4331B680D931D
:100870002300F8331B680E932300FC331B680F938F
:100880006B0604D5A36D0B60E36D4B600831AB06BE
:1008900001D5636E08C1EB0601D5236E08C162B6AF
:1008A0000AA8091AFFF7F6FDEB0703D520214448F3
:1008B000FFF7F0FDAB0703D520214248FFF7EAFD23
:1008C0006B0703D520214048FFF7E4FD20003900E5
:1008D000FFF7E0FD2000FFF74DFE6B0708D5FFF79F
:1008E00005FE20002021FFF7D5FD3548FFF716FE55
:1008F00020210020FFF7D6FC61E7230050331B784E
:10090000012B98D8183322009B00E1585132C8437C
:100910001278824201D9E3208EE75218E25083E731
:10092000254B1A68294B9A4227D172B6392303AD59
:10093000082200212800059300F09CF80122A979E3
:100940002B7805A84B40A9786A704B40E9784B405A
:1009500029794B40697906954B4053400AA9EB71C0
:10096000FFF7FCFB00230A9A9A4201D0184BD318D8
:10097000236062B60421E420BCE7E5205CE7C046C2
:100980000480044000C00040008004400040044057
:10099000448004404080044074800440E08004406F
:1009A000E4800440040000100000054028D8FFFF48
:1009B0000000001000E100E0000B000071756F7492
:1009C00094000010B4000010D400001055EECCAA22
:1009D000D8270000234B1A68234B9A42CDD13223EB
:1009E0000AA905A8059306960796FFF7B7FB0A9B89
:1009F000002B02D01D4A934232D13B231C4D05935C
:100A0000019B0AA905A8069307930895FFF7A6FB83
:100A10000A9B002B02D0154A934221D132230AA906
:100A200005A8059306960796FFF798FB0A9B002BEF
:100A300002D00E4A934213D133230593094B0AA9DE
:100A40000693402305A8089307940995FFF786FBB2
:100A50000A9B002B00D1E7E6044A934200D1E3E66B
:100A6000E420E9E6000B000055EECCAA28D8FFFFF1
:100A7000E02E000010B500F01FF810BD10B5FFF714
:100A8000CBFD10BD10B500F001F810BD8446830702
:100A900008D18B0706D1131F04D304C904C0043B3B
:100AA000FBD21A1D524205D0891A801A8B5C8354DE
:100AB0000132FBD1604670478446043A09D383076C
:100AC00007D109060B0A19430B0C1943043A02C05B
:100AD000FCD2043203D001700130013AFBD16046F0
:100AE00070478C4671460139095C49008E44614665
:100AF0007047FFFFFFFFFFFFFFFFFFFFFFFFFFFF4D
:100B000055EECCAA0000000000000000000000002C
:100B100000000000000000000000000000000000D5
:100B2000646F6E2774206665656420746865206252
:100B30007567732100000000000000000000000045
:100B400067E6096A85AE67BB72F36E3C3AF54FA55E
:100B50007F520E518C68059BABD9831F19CDE05B8A
:100B6000982F8A4291443771CFFBC0B5A5DBB5E918
:100B70005BC25639F111F159A4823F92D55E1CAB8C
:100B800098AA07D8015B8312BE853124C37D0C551A
:100B9000745DBE72FEB1DE80A706DC9B74F19BC162
:100BA000C1699BE48647BEEFC69DC10FCCA10C2452
:100BB0006F2CE92DAA84744ADCA9B05CDA88F97636
:100BC00052513E986DC631A8C82703B0C77F59BFA0
:100BD000F30BE0C64791A7D55163CA0667292914CC
:100BE000850AB72738211B2EFC6D2C4D130D385369
:100BF00054730A65BB0A6A762EC9C281852C72922B
:100C0000A1E8BFA24B661AA8708B4BC2A3516CC758
:100C100019E892D1240699D685350EF470A06A1091
:100C200016C1A419086C371E4C774827B5BCB034E0
:100C3000B30C1C394AAAD84E4FCA9C5BF36F2E687E
:100C4000EE828F746F63A5781478C8840802C78C0D
:100C5000FAFFBE90EB6C50A4F7A3F9BEF27871C610
:00000001FF
