:10000000E0030010E9000000A5010000A5010000C8
:10001000000000000000000000000000EDF7FFEF0E
:10002000000000000000000000000000A50100002A
:100030000000000000000000A5010000A501000074
:10004000A5010000A5010000A5010000A501000018
:10005000A5010000A5010000A5010000A501000008
:10006000B9010000A5010000A5010000A5010000E4
:10007000A5010000A5010000A5010000A5010000E8
:10008000A5010000A5010000A5010000A5010000D8
:10009000A5010000A5010000A5010000A5010000C8
:1000A000A5010000A5010000A5010000A5010000B8
:1000B000A5010000A5010000A5010000A5010000A8
:1000C000E00C00000000001000000000E00C000048
:1000D000E003001000000000000000108801000094
:1000E000E003001000000000F8B572B61A4838218D
:1000F0000160144B144A15499A60154B8B4207D383
:10010000002014498B4211D362B600F0F7FCFEE7E1
:1001100000221D685F689868BE18AC18904201D82C
:100120000C33EBE7246804323460F5E700221E68E4
:100130005C68B518944201D80833E3E728600432BC
:10014000F7E7C04600ED00E000000000D800000026
:10015000C0000000E80000002002004010B572B6A8
:10016000014B984762B610BDF11FFF1F03688B4318
:10017000036003680B43036003681942FCD07047B7
:100180000221064B1A688A431A6081221202DA6041
:100190000022034B1A705A707047C0460000054099
:1001A0000000001010B572B6FFF7EAFFA02301228D
:1001B0001B061A7120BFFDE78023394A1B025168D4
:1001C00070B5194203D00024364804705360CB0543
:1001D00007D50320490A0140324B03D10131197080
:1001E000116470BD01293FD1556C1978ECB2012919
:1001F00004D15C70187001231364F2E75978187009
:1002000008004E1C53385E700C2825D800F0A9FC5D
:1002100007242424241B1B1B1B1616161600997872
:100220000029E8D12049080053300470FF204865B8
:1002300001219970BFF35F8F40BFDCE71A48435C30
:100240001C434454D7E7184843181C79435CA54322
:1002500023402B434354CEE75329CCD89B78002B23
:10026000C9D1114B5C54C6E7022916D15978481CF4
:100270005870542908D19978FF23002902D10A4BDC
:1002800054331B785364B6E74F2903D8987800237A
:100290009842F7D1044B5B5CF4E7FFF783FFC0465D
:1002A000000005400000001004000010502270B54E
:1002B0000D4C0500521A0819002100F01BFC230008
:1002C000220055331D7023005232127857331A70B2
:1002D0000023C322236554342270BFF35F8F034A87
:1002E0002800937070BDC04604000010000000108C
:1002F00010B50021FFF7DAFF10BDF0B5644B93B0E5
:100300001A689C4605925A6806929A680792DA68BB
:1003100008921A6909925A690A929A690B92DA69E3
:10032000089B0C920E930C9B5A4A0D93079B0F92BD
:100330000293069B01930B9B04930A9B0393002358
:10034000099905980F241C4008345A1C10940F2B4F
:1003500000D96FE063461B6A1DBA109B4C4E9C008F
:10036000A55106230C000F00DC410533DF413B00A3
:100370000F0063401924E741049C7B40039F8C439A
:100380000F407C401B190F9C80CCDF190D9B7F19FF
:10039000FF180F94022304000500DC410B33DD41FC
:1003A00016236C400500DD41019B6C40029D6B40B3
:1003B00003400D93019D029B1D400D9B6B40E41873
:1003C0000E9BFD1804233F19049C9C440D94029C31
:1003D00013000E94402A24D1059BDF19069B376039
:1003E000181870600198079B84466344A446B36064
:1003F000089B29486344F360099B5D190A9B35619A
:100400005918716103990B9B8C46049963448C467F
:10041000B3610C9B00216344F36100F06BFB13B0EC
:10042000F0BD019A01900292039A38000391049260
:10043000290087E70F251540154F0835AD00EE5907
:100440001D000F240E35093325402340109C08352C
:100450000833A400AD009B00ED59DB59E759072490
:10046000DF193300E341119333000B34E341119C56
:10047000F60863407340FF1811242B001326E34154
:100480002C00F4412600AD0A5E4075407D1964E7FA
:1004900004010010E00B000024010010F7B5060075
:1004A0000D00002D00D1F7BD3F230E4F2C00386EFC
:1004B000184001331B1A01939D4200D91C000A4BBE
:1004C0002200C018310000F01DFB019B1B19402BBE
:1004D00001D1FFF712FF3B6E2D1B36191C193C662C
:1004E000DFE7C046040100102401001010B5FFF73B
:1004F000D5FF10BD70B5084C084B220023CB23C29A
:1005000023CB23C203CB03C240220021044800F0C6
:10051000F1FA0023236670BD04010010C00B000037
:100520002401001037B56B460500D81D802301213A
:100530000370FFF7B3FF3F230F4C226E1340382B9D
:1005400001D9FFF7DAFE236E013BDB001BBAE3653E
:10055000FFF7D3FE0022A358A9181BBA180AAB5400
:1005600048700432180C1B0E8870CB70202AF2D110
:10057000FFF7C0FF37BDC0460401001070B504008E
:10058000FFF7D0FF084D20212800FFF787FF20212B
:100590002000FFF783FF2000FFF7C4FF2800202280
:1005A000002100F0A7FA70BD6801001070B50600C8
:1005B0000C00FFF79FFF184D202C1ED930002100A2
:1005C000FFF76CFF2800FFF7ADFF2C002B00002188
:1005D00036201A78013142401A7001332029F8D1AF
:1005E0002800FFF75BFF00236A21227801334A408D
:1005F00022700134202BF8D170BD22003100280078
:1006000000F080FA20222000121B044C64300019F4
:10061000002100F06FFAD8E7680100100401001013
:10062000F0B58026E0220421CF4C5200E36F03276F
:100630003343E367CD4BCE4D985897B00143995063
:100640000821985801439950E26F8820B243E2672D
:10065000E26F80013243E2674022E16F80260A4365
:10066000E267A022102112061150B60190590843EA
:1006700090518020BF4AC000966906439661566932
:100680003043182650611069B04301431161802145
:10069000DA6989041202120A0A43FF21DA611A6A2E
:1006A0008E268A433A431A620122E36F7F398B43D5
:1006B000B600E367AB59B0489343AB51AB599218BE
:1006C0009343AB51AB591E3293430022AB51AB4B1A
:1006D0001A60AB590B43AB512B6C2A6CBB431343D1
:1006E0002B643900FFF742FD2B6C3B402F00002BA1
:1006F00003D0012B00D1AB59FFDE7F22AB689343BF
:100700001A00242313438022AB60AB599343AB51AF
:100710000123FA681A42FCD003233A6F1A409A4226
:1007200007D03A6F01219A4313433B679448FFF780
:100730001DFD0225934B01211D609348FFF716FD17
:10074000FF22BB6F002193431D432023BD67E26F4F
:100750008E4D1343E367802203238D4C52006B615F
:10076000200000F0C7F93A2326000CA907A8079338
:10077000FFF7F4FC2000210022000D9BF0363360CF
:100780000E9BF43003600F9BF8310B60109BFC3222
:1007900013600C9B0192002B09D07E4A934206D035
:1007A0000123019A5B42336003600B6013602300F6
:1007B000C322002654331A70774B9E70FFF7E0FC7B
:1007C00081231B02AB6040230222AB643F3BEB64FE
:1007D0002B656B65AE6529680A4380212A606F4AE4
:1007E000490011606E4A0293920903926C4A920A80
:1007F0000192A022002312061371674A9378002BFE
:1008000010D0A023029A1B061A71230053331878C4
:10081000C02800D194E007D800282FD0A02827D0E6
:10082000E2202BE020BFE9E7F52800D107E1FA2814
:1008300000D1BFE0E028F3D1230050331D78022D12
:100840001BD8230051331E78502E16D86D019035D9
:100850006519FFF74FFE20212800FFF71FFE20003B
:100860003100FFF71BFE2800FFF75CFE002005E0CB
:10087000230051331E78502E03D9E120FFF738FDB5
:10088000B7E7202123004648503340181D78FFF772
:100890008DFE72B6434B0D950C936BB20EA9002BD7
:1008A00010DA2300F0331B6812A90E932300F433EF
:1008B0001B680F932300F8331B6810932300FC334D
:1008C0001B6811936B0604D5A36D0B60E36D4B6041
:1008D0000831AB0601D5636E08C1EB0601D5236E66
:1008E00008C162B60CA8091AFFF7D8FD029B1D4289
:1008F00003D020212C48FFF7D1FDAB0703D52021E1
:100900002A48FFF7CBFD6B0703D520212848FFF7C6
:10091000C5FD20003100FFF7C1FD2000FFF72EFECE
:100920006B0708D5FFF7E6FD20002021FFF7B6FD95
:100930001D48FFF7F7FD20210020FFF7B7FC58E71F
:10094000230050331B78012B97D8183322009B00CB
:10095000E1585132C8431278824201D9E3208DE731
:100960005218E25082E7C0460480044000C00040B4
:100970000080044000400440448004404080044023
:1009800074800440E0800440E4800440000005409E
:100990000400001028D8FFFF0000001000E100E074
:1009A000800B000071756F7494000010B40000108B
:1009B000D4000010474B1A68474B9A423DD172B69B
:1009C0008022D205136802998B431360FFF7D8FB8E
:1009D00003223B6F134206D03B6F012193433B67D9
:1009E0003E48FFF7C3FBFF220124BB6F05AD9343D5
:1009F0002343BB673923F73A00212800079300F00F
:100A000079F8AA792B780CA95340AA7807A8534003
:100A1000EA786C7053402A7953406A7908955340BC
:100A20006340EB71FFF79AFBBFF34F8F2C4B2D4ABE
:100A3000DA60BFF34F8FC046FDE7E5201EE7254B88
:100A40001A68254B9A42F8D132230793019B0CA9CF
:100A500007A808930993FFF781FB0C9B002B02D09A
:100A6000214A934234D13B230793039B0CA908935B
:100A700009931E4B07A80A93FFF770FB0C9B002BF2
:100A800002D0194A934223D132230793019B0CA928
:100A900007A808930993FFF761FB0C9B002B02D07A
:100AA000114A934214D1332307930A4B0CA908939C
:100AB00040230A930E4B07A80B930994FFF74EFBB4
:100AC0000C9B002B00D1D1E6074A934200D1CDE622
:100AD000E420D3E6800B000055EECCAA74800440DD
:100AE00000ED00E00400FA0528D8FFFF3075000093
:100AF000E02E000010B500F01FF810BD10B5FFF794
:100B00008FFD10BD10B500F001F810BD84468307BD
:100B100008D18B0706D1131F04D304C904C0043BBA
:100B2000FBD21A1D524205D0891A801A8B5C83545D
:100B30000132FBD1604670478446043A09D38307EB
:100B400007D109060B0A19430B0C1943043A02C0DA
:100B5000FCD2043203D001700130013AFBD160466F
:100B600070478C4671460139095C49008E446146E4
:100B70007047FFFFFFFFFFFFFFFFFFFFFFFFFFFFCC
:100B800055EECCAA000000000000000000000000AC
:100B90000000000000000000000000000000000055
:100BA000646F6E27742066656564207468652062D2
:100BB00075677321000000000000000000000000C5
:100BC00067E6096A85AE67BB72F36E3C3AF54FA5DE
:100BD0007F520E518C68059BABD9831F19CDE05B0A
:100BE000982F8A4291443771CFFBC0B5A5DBB5E998
:100BF0005BC25639F111F159A4823F92D55E1CAB0C
:100C000098AA07D8015B8312BE853124C37D0C5599
:100C1000745DBE72FEB1DE80A706DC9B74F19BC1E1
:100C2000C1699BE48647BEEFC69DC10FCCA10C24D1
:100C30006F2CE92DAA84744ADCA9B05CDA88F976B5
:100C400052513E986DC631A8C82703B0C77F59BF1F
:100C5000F30BE0C64791A7D55163CA06672929144B
:100C6000850AB72738211B2EFC6D2C4D130D3853E8
:100C700054730A65BB0A6A762EC9C281852C7292AA
:100C8000A1E8BFA24B661AA8708B4BC2A3516CC7D8
:100C900019E892D1240699D685350EF470A06A1011
:100CA00016C1A419086C371E4C774827B5BCB03460
:100CB000B30C1C394AAAD84E4FCA9C5BF36F2E68FE
:100CC000EE828F746F63A5781478C8840802C78C8D
:100CD000FAFFBE90EB6C50A4F7A3F9BEF27871C690
:00000001FF
