:10000000E00300101D0200007504000075040000EC
:1000100000000000000000000000000019F1FFEFE8
:100020000000000000000000000000007504000057
:1000300000000000000000007504000075040000CE
:1000400075040000750400007504000089040000B8
:1000500075040000750400007504000075040000BC
:10006000DD05000075040000750400007504000043
:10007000750400007504000075040000750400009C
:10008000750400007504000075040000750400008C
:10009000750400007504000075040000750400007C
:1000A000750400007504000075040000750400006C
:1000B000750400007504000075040000750400005C
:1000C000F00F00000000001004000000F00F00001E
:1000D000E00300100000000004000010F001000028
:1000E000E0030010000000008020FF21F8B53D4F24
:1000F0008E26FB6F3C4D0343FB673C4BB6001A68F2
:1001000003248A43110004220A431A601A683849FA
:100110000A401A600122FB6F21008343FB67AB5941
:100120009343AB51AB5992189343AB51AB591E3229
:1001300093430022AB512F4B1A60AB590343AB5191
:100140002B6C2A6CA34313432B642B4800F032F929
:100150002B6C23402C00002B03D0012B00D1AB597A
:10016000FFDE7F22AB6893431A00412313438022B2
:10017000AB60AB599343AB510123E2681A42FCD008
:100180000323226F1A409A4207D0226F01219A431B
:1001900013432367194800F00DF90222184B01217F
:1001A0001A60184800F006F9FF22A36F9343FC3A47
:1001B0001343A367144B1A600023144A1360144AB4
:1001C0001360144B144A1A608023FA6FDB01134347
:1001D000FB67082362689A43626062681343636046
:1001E000F8BDC046048004400080044000C00040C8
:1001F000FF00FFFF408004404480044074800440BE
:10020000E0800440E480044094800440F080044096
:10021000F48004400000001000127A00F8B572B6B5
:100220001D4838210160154A154B16499A60164B36
:10023000164A1A60164B8B4207D3002015498B4291
:1002400011D362B600F092FDFEE700221D685F68E0
:100250009868BE18AC18904201D80C33EBE72468BC
:1002600004323460F5E700221E685C68B5189442D9
:1002700001D80833E3E728600432F7E70000000004
:1002800000ED00E0D800000000000010001BB700E7
:10029000C0000000E800000020020040FFFFFFFF58
:1002A000FFFFFFFFFFFFFFFFFFFFFFFFFFFFFFFF5E
:1002B000FFFFFFFFFFFFFFFFFFFFFFFFFFFFFFFF4E
:1002C000FFFFFFFFFFFFFFFFFFFFFFFFFFFFFFFF3E
:1002D000FFFFFFFFFFFFFFFFFFFFFFFFFFFFFFFF2E
:1002E000FFFFFFFFFFFFFFFFFFFFFFFFFFFFFFFF1E
:1002F000FFFFFFFFFFFFFFFFFFFFFFFF21436587BA
:1003000010B572B6014B984762B610BDF11FFF1FC2
:10031000322370B58AB0850A060005A968460093A5
:1003200001950295FFF7ECFF059B002B05D01D4AB8
:10033000934202D000200AB070BD3B221A4CB30990
:1003400005A968460193029300920394FFF7D8FF32
:10035000059B002B02D0134A9342EBD1322305A90F
:100360006846009301950295FFF7CAFF059B002B95
:1003700002D00C4A9342DDD1332300930B4B6846E5
:100380000293402305A9039301960494FFF7B8FF55
:10039000059B0120002BCED0054A9B18584258419E
:1003A000C0B2C8E728D8FFFF490C02005000001077
:1003B000D827000003688B43036003680B43036086
:1003C00003681942FCD070470300303BDAB2092AB7
:1003D00001D8180070470300413B052B01D837387E
:1003E000F8E70300613B5738052BF3D90120404261
:1003F000F0E7054B10B51B68044A5B6A01001B69F6
:100400001068984710BDC046F81FFF1F0400001079
:10041000044B10B51B68044A5B6A1068DB68984798
:1004200010BDC046F81FFF1F0400001010B5FFF7F5
:10043000EFFFFFF7C9FF0400FFF7EAFFFFF7C4FF74
:100440002401204310BD0822084BDA67BFF34F8F09
:10045000BFF36F8F064B9968114205D101211A68CD
:100460008A431A6099607047C046F4E704E100E0EF
:100470000040064010B572B6FFF7E5FFA023012249
:100480001B065A7020BFFDE7F7B501254F4E736A72
:100490002B421BD03561B560FFF7BAFF522862D0FE
:1004A0002C00572807D1FFF7C1FF0400FFF7BEFF5C
:1004B000FF2C0CD9012401237A20F360FFF799FF68
:1004C0002000FFF796FF0A20FFF793FFF7BDFF28F4
:1004D000F0D8FF27E4B22018C3B20193019B9C42DD
:1004E00007D1FFF795FF0A380400601E8441E4B28B
:1004F000E1E7FFF79BFF0300FF28DBD8C2B2200033
:1005000053380C2826D800F080FC07252525251C0B
:100510001C1C1C17171717002D4B1979002908D11F
:100520002C491D710800533002704F65BFF35F8F77
:1005300040BF0134E4B2D1E726490B5D1A430A55A6
:10054000F7E7244A11190979105D8B4308401843D5
:100550001055EEE7532CECD81D4B1B79002BE8D13E
:100560001C4B1A55E5E7FFF761FF0400FFF75EFF3C
:100570000500FFF74DFFFF2C9CD8FF2D9AD80A28C5
:1005800098D1E4B268306519FFF733FFEBB20193FD
:10059000019BA34204D10A20FFF72BFF00248AE726
:1005A000542C04D80A4BFF251B79002B01D1094B91
:1005B0001D5D094F2B09F85CFFF71BFF0F231D4042
:1005C000785D0134FFF715FFE4B2E1E70040064033
:1005D0000400001050000010C00E000010B5FFF71E
:1005E00049FFF0B5644B93B01A689C4605925A686F
:1005F00006929A680792DA6808921A6909925A690B
:100600000A929A690B92DA69089B0C920E930C9BE2
:100610005A4A0D93079B0F920293069B01930B9BE3
:1006200004930A9B03930023099905980F241C4007
:1006300008345A1C10940F2B00D96FE063461B6AD4
:100640001DBA109B4C4E9C00A55106230C000F00B8
:10065000DC410533DF413B000F0063401924E741D3
:10066000049C7B40039F8C430F407C401B190F9CD4
:1006700080CCDF190D9B7F19FF180F940223040013
:100680000500DC410B33DD4116236C400500DD41E4
:10069000019B6C40029D6B4003400D93019D029BAA
:1006A0001D400D9B6B40E4180E9BFD1804233F1961
:1006B000049C9C440D94029C13000E94402A24D167
:1006C000059BDF19069B3760181870600198079B1F
:1006D00084466344A446B360089B29486344F3609E
:1006E000099B5D190A9B35615918716103990B9B30
:1006F0008C46049963448C46B3610C9B002163448F
:10070000F36100F02FFB13B0F0BD019A019002924B
:10071000039A380003910492290087E70F251540BA
:10072000154F0835AD00EE591D000F240E35093365
:1007300025402340109C08350833A400AD009B00E1
:10074000ED59DB59E7590724DF193300E3411193D1
:1007500033000B34E341119CF60863407340FF18EB
:1007600011242B001326E3412C00F4412600AD0A8E
:100770005E4075407D1964E750010010F00E0000E6
:1007800070010010F7B506000D00002D00D1F7BD77
:100790003F220E4F3B6E134001934023019A9C1A57
:1007A000AC4200D92C00019B0948220018183100E6
:1007B00000F0E0FA019B1B19402B01D1FFF711FF5C
:1007C0003B6E2D1B36191C193C66DEE750010010EC
:1007D0007001001010B5FFF7D5FF10BD70B5094CC2
:1007E000094B2200103323CB23C223CB23C203CBDC
:1007F00003C240220021054800F0B4FA002323661A
:1008000070BDC04650010010C00E00007001001005
:1008100037B56B460500D81D802301210370FFF713
:10082000B1FF3F230F4C226E1340382B01D9FFF745
:10083000D8FE236E013BDB001BBAE365FFF7D1FE58
:100840000022A358A9181BBA180AAB5448700432E6
:10085000180C1B0E8870CB70202AF2D1FFF7BEFF58
:1008600037BDC0465001001070B50500FFF7B6FF58
:10087000084C20212000FFF785FF2000FFF7C8FF6C
:1008800029002022200000F079FA43425841C0B2EA
:1008900070BDC0467000001070B50400FFF7B8FFCF
:1008A000084D40212800FFF76DFF20212000FFF7B1
:1008B00069FF2000FFF7ACFF28004022002100F074
:1008C00051FA70BDB401001070B50D000600FFF7BD
:1008D00085FF164C40220021200000F043FA402DF5
:1008E0001ED930002900FFF74DFF2000FFF790FFD1
:1008F00025002300002136201A78013142401A7069
:1009000001334029F8D12000FFF73CFF00236A2182
:100910002A7801334A402A700135402BF8D170BD46
:100920002A003100200000F025FAE1E7B4010010B0
:10093000F0B595B0FFF7D8FB8022C84C52000021DB
:10094000200000F00FFA3A2325000AA905A8059314
:10095000FFF7D6FC2000210022000B9BF0352B6016
:100960000C9BF43003600D9BF8310B600E9BFC3246
:10097000009313600A9B002B08D0B94EB34205D0F8
:1009800001235B422B6003600B6013602300C322D2
:10099000B449002554331A700A00B34EB34B357175
:1009A000A565E56583CB83C283CB83C203CB03C23A
:1009B0003100AF4F08313B68AE485B6A5B689847CF
:1009C000AD4B30601B6801260A9396230C961B02E0
:1009D0000B933B680AA95B6A9B6898470822A54B62
:1009E000DE60A64B1A600095A02300221B069E4ED7
:1009F0005A703379002B32D0A02201231206537093
:100A0000009BB364230053331D78C02D00D1E6E072
:100A100027D8A02D49D0B02D00D1B8E0002D00D0AE
:100A2000E2255022904E0021B06C121A201800F0DE
:100A300099F9009B2200B364230055331D702300F5
:100A40005232127857331A70009BC3222365230059
:100A500054331A70BFF35F8F009B3371C4E720BF1C
:100A6000C7E7F12D00D1CFE0F22D00D168E1E02DF4
:100A7000D6D1230050331E78E125022ED1D8230091
:100A800051331F78502FCCD876019036A619FFF736
:100A9000A5FE30002021FFF775FE20003900FFF78A
:100AA00071FE3000FFF7B4FE6FE0230051331F7872
:100AB000E125502FB5D8230050331D78704B0AAE76
:100AC0009A69DB690A92019373606E4B2021B360CF
:100AD0006D48FFF7F9FE0C213000FFF753FE3000A0
:100AE000FFF7DAFE20213000FFF7EEFE72B6654B0D
:100AF0000B950A936BB20CA9002B10DA2300F0338C
:100B00001B6810A90C932300F4331B680D9323007A
:100B1000F8331B680E932300FC331B680F936B069E
:100B200004D5A36D0B60E36D4B600831AB0601D5B6
:100B3000636E08C1EB0601D5236E08C162B6891B3E
:100B40003000FFF71FFE2B0703D520214548FFF794
:100B500019FEEB0703D520214C48FFF713FEAB0726
:100B600003D520214A48FFF70DFE6B0703D520214E
:100B70004848FFF707FE39002000FFF703FE20007A
:100B8000FFF78AFE2022384B9A64002549E72300AC
:100B900050331F78E125502F00D942E7384B2021F0
:100BA0001A695B69384801930B933B4B0A920C938B
:100BB000FFF78AFE0C210AA8FFF7E4FD0AA8FFF759
:100BC0006BFE20210AA8FFF77FFE39002000FFF707
:100BD000D9FD2000FFF760FE2023B364D5E7230092
:100BE00050331B78E125012B00D91AE71833220076
:100BF0009B00E1585132C84312780235824200D935
:100C00000FE75218E250C0E7230050331B785C2BEB
:100C10000ED11B48214B02689A4201D0E52500E71E
:100C2000FFF776FB0025A84200D0FAE6E425F8E6B7
:100C30002A2B37D11A48FFF717FE0028EED00B4DAC
:100C40002800FFF765FB0028F0D0064A130007CD07
:100C500007C307CD07C306CD06C396E750000010B3
:100C600028D8FFFFC000001004000010800E000014
:100C7000F81FFF1F004006400000001000E100E0E8
:100C8000400E000051554F54600E0000E00000106F
:100C90000001001020010010484B444655EECCAA3C
:100CA000A00E0000FA2B4DD1274B1A68274B9A4211
:100CB00037D172B680220125D2051368244CAB438C
:100CC0001360FFF7C0FB0322236F134230D1FF22D2
:100CD0000125A36F002193432B43A367392303AC62
:100CE000F73A2000059300F03DF8A27923780AA98D
:100CF0005340A27805A85340E278657053402279AA
:100D000053406279069453406B40E371FFF7F8FA61
:100D1000BFF34F8F0F4B104ADA60BFF34F8FC046BF
:100D2000FDE70E48FFF7A0FD002800D176E7C0E7F9
:100D3000236F2900934323670948FFF73BFBC6E76E
:100D4000EF256EE6E1256CE6400E000055EECCAADC
:100D50000080044000ED00E00400FA05600E000091
:100D60007480044010B500F03BF810BD10B5FFF7DB
:100D7000DFFD10BD10B500F01DF810BD03000B43E2
:100D800030B59B0708D000240139A2420BD10020C6
:100D90000FE004300431043A032AF4D903680C68E4
:100DA000A342F6D0EFE7035D01340D5DAB42ECD01A
:100DB000581B30BD8446830708D18B0706D1131F0B
:100DC00004D304C904C0043BFBD21A1D524205D00F
:100DD000891A801A8B5C83540132FBD160467047BC
:100DE0008446043A09D3830707D109060B0A19433D
:100DF0000B0C1943043A02C0FCD2043203D0017038
:100E00000130013AFBD1604670478C46714601398A
:100E1000095C49008E4461467047FFFFFFFFFFFFFA
:100E2000FFFFFFFFFFFFFFFFFFFFFFFFFFFFFFFFD2
:100E3000FFFFFFFFFFFFFFFFFFFFFFFFFFFFFFFFC2
:100E400055EECCAA200000000000000000000000C9
:100E5000C3C3C3C3C3C3C3C33C3C3C3C3C3C3C3C9A
:100E600066687AADF862BD776C8FC18B8E9F8E20DD
:100E7000089714856EE233B3902A591D0D5F29251A
:100E8000646F6E27742066656564207468652062EF
:100E900075677321000000000000000000000000E2
:100EA00066687AADF862BD776C8FC18B8E9F8E209D
:100EB000089714856EE233B3902A591D0D5F2925DA
:100EC0003031323334353637383941424344454680
:100ED00067E6096A85AE67BB72F36E3C3AF54FA5CB
:100EE0007F520E518C68059BABD9831F19CDE05BF7
:100EF000982F8A4291443771CFFBC0B5A5DBB5E985
:100F00005BC25639F111F159A4823F92D55E1CABF8
:100F100098AA07D8015B8312BE853124C37D0C5586
:100F2000745DBE72FEB1DE80A706DC9B74F19BC1CE
:100F3000C1699BE48647BEEFC69DC10FCCA10C24BE
:100F40006F2CE92DAA84744ADCA9B05CDA88F976A2
:100F500052513E986DC631A8C82703B0C77F59BF0C
:100F6000F30BE0C64791A7D55163CA066729291438
:100F7000850AB72738211B2EFC6D2C4D130D3853D5
:100F800054730A65BB0A6A762EC9C281852C729297
:100F9000A1E8BFA24B661AA8708B4BC2A3516CC7C5
:100FA00019E892D1240699D685350EF470A06A10FE
:100FB00016C1A419086C371E4C774827B5BCB0344D
:100FC000B30C1C394AAAD84E4FCA9C5BF36F2E68EB
:100FD000EE828F746F63A5781478C8840802C78C7A
:100FE000FAFFBE90EB6C50A4F7A3F9BEF27871C67D
:040FF000001BB7002B
:00000001FF
