:10000000E0030010090100002103000021030000AB
:10001000000000000000000000000000D5F4FFEF29
:1000200000000000000000000000000021030000AC
:100030000000000000000000210300002103000078
:100040002103000021030000210300002103000020
:100050002103000021030000210300002103000010
:10006000E90000002103000021030000210300003B
:1000700021030000210300002103000021030000F0
:1000800021030000210300002103000021030000E0
:1000900021030000210300002103000021030000D0
:1000A00021030000210300002103000021030000C0
:1000B00021030000210300002103000021030000B0
:1000C000E40F00000000001000000000E40F00003A
:1000D000E00300100000000000000010CC01000050
:1000E000E0030010000000000548064B026810B550
:1000F0001969D20702D50023984710BD5B69FBE759
:100100000000054000000010F8B572B61A4838210A
:100110000160144B144A15499A60154B8B4207D362
:10012000002014498B4211D362B600F061FEFEE755
:1001300000221D685F689868BE18AC18904201D80C
:100140000C33EBE7246804323460F5E700221E68C4
:100150005C68B518944201D80833E3E7286004329C
:10016000F7E7C04600ED00E000000000D800000006
:10017000C0000000E80000002002004010B572B688
:10018000014B984762B610BDF11FFF1F70B50C0000
:1001900022718B6A15008A68002B1AD02A4218D067
:1001A000CA6A9847631D6169A269D87F00280BD18C
:1001B0002069002801D0002904D1E168002903D07A
:1001C000002A01D00122DA77FD23023D1D4000D133
:1001D000E56170BDF8B5802746683F028B69050070
:1001E0000C004B693E4203D04022FFF7CFFF6F6007
:1001F000F30541D57605B60F37D16B6CDAB2627173
:10020000DB071DD563692269002A01D0002B04D1C8
:10021000022221002800FFF7B9FF63692269002A42
:1002200001D0002B07D1022301222B6421002800DA
:10023000FFF7ACFF20E00322A31DDA770123F3E7E9
:10024000A369E268002A01D0002B04D10422210016
:100250002800FFF79BFFA269E16802230029E3D091
:10026000002AE1D0A21DD377E8E7A31DDB7FDBB234
:10027000022B02D0032B29D0F8BD012E44D1A36953
:10028000E268002A01D0002B04D1042221002800BA
:10029000FFF77CFFA369E268002A0FD0002B0DD086
:1002A0006A6CE3681A70A369013BA361E3680133D8
:1002B000E360E3690133E36101232B646369A269AD
:1002C0001343D9D1621DD3772022AFE70223022E38
:1002D0001AD163692269002A01D0002B04D10222BD
:1002E00021002800FFF752FF63692269002AE5D048
:1002F000002BE3D023691B786B646369013B636166
:10030000236901332361D4E72B64B5E703688B438A
:10031000036003680B43036003681942FCD0704715
:1003200072B600222021044B1A60044AD36F8B431B
:10033000D36720BFFDE7C0460000054004800440AD
:10034000F7B500240126204AD3780193019BA342EC
:1003500003D80023D3701370F7BD937811191B19BC
:10036000DBB21800533809790C2826D800F073FD49
:1003700007252525251A1A1A1A1515151500137B98
:10038000002B08D1114B16731970FF2310494B65D0
:10039000BFF35F8F40BF0134D8E70D48C75C3943D6
:1003A000C154F8E70A4FF818007984466546F85CAE
:1003B000A94328400143F954EDE7532BEBD8107BB8
:1003C0000028E8D10248EBE7000000109B00001075
:1003D0004800001030B5184B5A78542A22D11D7BA2
:1003E000FF24002D02D1154C5434247801325A7068
:1003F00005221C711A700A6881210902C160541D0E
:100400000433E57F1361012500235561D3609361B7
:10041000D36166339360643BE57703604368436070
:10042000816030BD4F2A03D800241D7BA542DDD159
:10043000024CA45CDAE7C04600000010480000103F
:10044000F8B5594B040018780D00052800D975E05F
:100450000A7900F000FD032539642D35D2B2042A53
:1004600017D1812500200A682D02E560561DF17F15
:10047000591C10615061D16001219161D0616630D9
:1004800090600222F1772260626819706260A56054
:10049000F8BD022A6BD129002000FFF79BFFF7E788
:1004A000202A64D15A789A700022DA70022205E07C
:1004B000D2B2022AEFD0402A59D100221A70E7E7BF
:1004C000202A54D11C3AF9E7D2B2042A1DD19978D6
:1004D0005A788120521A0321D2B2197004329B1823
:1004E0002A680002E060551DE97F00211161516119
:1004F000D36001239361D16166319160EB77DB18A2
:10050000236063686360A060C2E7402A02D1FFF7FE
:1005100017FFBDE7022A2AD1FFF712FFBBE7202A07
:1005200025D107205A7899780132521A02408A1848
:100530005A70DA788242B9D80132B6E70979C9B27D
:10054000042916D181202A680002E060551DE97F48
:10055000002111615161D1609161D1614631916099
:100560000122EA779218226062686260A060062227
:10057000A4E7022915D12A6881252D02E560561DC0
:10058000F07F0A480127106100205761D060906118
:10059000D06146309060F777216062686260A56044
:1005A000E5E74029E3D188E700000010C00E000015
:1005B000502270B50D4C0500521A0819002100F0A8
:1005C00013FC2300220055331D7023005232127891
:1005D00057331A700023C322236554342270BFF3AB
:1005E0005F8F034A2800137370BDC0464800001097
:1005F0000000001010B50021FFF7DAFF10BDF0B5C4
:10060000644B93B01A689C4605925A6806929A68A1
:100610000792DA6808921A6909925A690A929A69E5
:100620000B92DA69089B0C920E930C9B5A4A0D931D
:10063000079B0F920293069B01930B9B04930A9BCB
:1006400003930023099905980F241C4008345A1C71
:1006500010940F2B00D96FE063461B6A1DBA109BE4
:100660004C4E9C00A55106230C000F00DC410533C5
:10067000DF413B000F0063401924E741049C7B40AD
:10068000039F8C430F407C401B190F9C80CCDF19CB
:100690000D9B7F19FF180F94022304000500DC4115
:1006A0000B33DD4116236C400500DD41019B6C409E
:1006B000029D6B4003400D93019D029B1D400D9BCD
:1006C0006B40E4180E9BFD1804233F19049C9C44C6
:1006D0000D94029C13000E94402A24D1059BDF192F
:1006E000069B3760181870600198079B8446634426
:1006F000A446B360089B29486344F360099B5D19D5
:100700000A9B35615918716103990B9B8C460499BA
:1007100063448C46B3610C9B00216344F36100F099
:1007200063FB13B0F0BD019A01900292039A380066
:1007300003910492290087E70F251540154F0835CE
:10074000AD00EE591D000F240E350933254023401E
:10075000109C08350833A400AD009B00ED59DB590F
:10076000E7590724DF193300E341119333000B34B9
:10077000E341119CF60863407340FF1811242B00DD
:100780001326E3412C00F4412600AD0A5E4075407B
:100790007D1964E748010010E40E000068010010B4
:1007A000F7B506000D00002D00D1F7BD3F230E4F19
:1007B0002C00386E184001331B1A01939D4200D95A
:1007C0001C000A4B2200C018310000F015FB019BF1
:1007D0001B19402B01D1FFF712FF3B6E2D1B361961
:1007E0001C193C66DFE7C046480100106801001094
:1007F00010B5FFF7D5FF10BD70B5094C094B2200AD
:10080000043323CB23C223CB23C203CB03C2402216
:100810000021054800F0E8FA0023236670BDC046B9
:1008200048010010C00E00006801001037B56B468B
:100830000500D81D802301210370FFF7B1FF3F237E
:100840000F4C226E1340382B01D9FFF7D8FE236ED0
:10085000013BDB001BBAE365FFF7D1FE0022A35882
:10086000A9181BBA180AAB5448700432180C1B0E96
:100870008870CB70202AF2D1FFF7BEFF37BDC0468B
:100880004801001070B50400FFF7D0FF084D20218B
:100890002800FFF785FF20212000FFF781FF2000BF
:1008A000FFF7C4FF28002022002100F09DFA70BD50
:1008B000AC01001070B506000C00FFF79DFF184D4D
:1008C000202C1ED930002100FFF76AFF2800FFF717
:1008D000ADFF2C002B00002136201A780131424058
:1008E0001A7001332029F8D12800FFF759FF00239F
:1008F0006A21227801334A4022700134202BF8D13A
:1009000070BD22003100280000F076FA202220007D
:10091000121B044C64300019002100F065FAD8E77E
:10092000AC01001048010010F0B58026E02204213F
:10093000D54F5200FB6F03243343FB67D34BD44D99
:10094000985895B0014399500821985801439950FF
:100950008021FA6FC900B243FA67FA6F3243FA672F
:10096000CC4A9069084390615069014351618021EC
:10097000DA6989041202120A0A43FF21DA611A6A4B
:10098000C5488A4322431A620122FB6F3100B343F8
:10099000B936FB67FF36AB599343AB51AB5992184D
:1009A0009343AB51AB591E3293430022AB51BB4B27
:1009B0001A60AB590B43AB512B6C2A6CA343134306
:1009C00021002B64FFF7A2FC2B6C23402C00002B92
:1009D00003D0012B00D1AB59FFDE7F22AB689343DC
:1009E0001A00602313438022AB60AB599343AB5191
:1009F0000123E2681A42FCD00322236F134206D07F
:100A0000236F012193432367A548FFF77FFC00254F
:100A1000A44B01211D60A448FFF778FCFF22A36FBF
:100A20009343FE3A1343A3672023F96F0B43FB67FD
:100A3000402361689D4F994361606168194361601B
:100A40009B4C0321260079611836BB643E3BFA6457
:100A500029003A6530007A65BD652F323B6000F0B1
:100A6000C3F9944B8022236423003D331D70924BC5
:100A70006564636181231B02A66126618F4EFB6062
:100A80008F4B52001A602900300000F0ADF93A2374
:100A900035000AA905A80593FFF770FB3000310067
:100AA00032000B9BF0352B600C9BF43003600D9BE8
:100AB000F8310B600E9BFC3213600A9B0092002BF6
:100AC00009D0804A934206D00123009A5B422B60F2
:100AD00003600B601360C3235436812221003370FE
:100AE000002312023C312373FA603B600B702370C9
:100AF000E36263702363FA600878A362E36263626F
:100B00002363636307332362063B0B7001333B604F
:100B10007B687B606C4BBA609B0901936A4B9B0AB4
:100B20000093237B002B0DD0644D2B00533318789A
:100B3000C02800D195E007D800282FD0A02827D0C2
:100B4000E2202BE020BFECE7F52800D1F6E0FA2800
:100B500000D1C3E0E028F3D12B0050331E78022EE1
:100B60001BD82B0051331F78502F16D876019036A2
:100B70007619FFF741FE20213000FFF711FE280013
:100B80003900FFF70DFE3000FFF750FE002005E0B2
:100B90002B0051331F78502F03D9E120FFF72AFD96
:100BA000BFE720212B004848503340181E78FFF73C
:100BB00081FE72B6454B0B960A9373B20CA9002BBB
:100BC0000FDA2B00F0331B6810A90C932B00F433C1
:100BD0001B680D932B00F8331B68FC350E932B68B4
:100BE0000F93730605D5354B9A6DDB6D0A604B602C
:100BF0000831324DB30601D56B6E08C1F30602D53C
:100C00002E4B1B6E08C162B60AA8091AFFF7C8FD71
:100C1000F30703D520212E48FFF7C2FDB30703D504
:100C200020212C48FFF7BCFD730703D520212A485B
:100C3000FFF7B6FD28003900FFF7B2FD2800FFF7E7
:100C400021FE730708D5FFF7D7FD28002021FFF705
:100C5000A7FD1F48FFF7EAFD20210020FFF7A8FCB1
:100C60005FE72B0050331B78012B96D818332A00EE
:100C70009B0059595132C8431278824201D9E3206E
:100C80008CE752185A5181E70480044000C00040AC
:100C90000080044000400440448004404080044000
:100CA00074800440E0800440E4800440000005407B
:100CB0000000001041040000D501000048000010B1
:100CC00000E100E028D8FFFF800E000071756F740E
:100CD000D8000010F8000010180100103C4B1A68F2
:100CE0003C4B9A4228D172B6392303AD0822002129
:100CF0002800059300F078F80122A9792B7805A83F
:100D00004B40A9786A704B40E9784B4029794B40B9
:100D1000697906954B4053400AA9EB71FFF72EFA0B
:100D200000230A9A9A4201D02B4BD3182B4A136006
:100D300062B60421E42091E7E5202FE7244B1A68EE
:100D4000244B9A42F8D132230593009B0AA905A8A7
:100D500006930793FFF712FA0A9B002B02D0204A52
:100D6000934233D13B231F4E0593019B0AA905A84B
:100D7000069307930896FFF701FA0A9B002B02D00F
:100D8000174A934222D132230593009B0AA905A852
:100D900006930793FFF7F2F90A9B002B02D0104A43
:100DA000934213D133230593094B0AA90693402399
:100DB00005A8089307950996FFF7E0F90A9B002B11
:100DC00000D1E3E6064A934200D1DFE6E420E5E6FF
:100DD000800E000055EECCAAD82700004800001075
:100DE00028D8FFFFE02E000010B500F01FF810BD5E
:100DF00010B5FFF799FD10BD10B500F001F810BD5A
:100E00008446830708D18B0706D1131F04D304C976
:100E100004C0043BFBD21A1D524205D0891A801A25
:100E20008B5C83540132FBD1604670478446043AA0
:100E300009D3830707D109060B0A19430B0C194381
:100E4000043A02C0FCD2043203D001700130013AEE
:100E5000FBD1604670478C4671460139095C4900F8
:100E60008E4461467047FFFFFFFFFFFFFFFFFFFF5C
:100E7000FFFFFFFFFFFFFFFFFFFFFFFFFFFFFFFF82
:100E800055EECCAA000000000000000000000000A9
:100E90000000000000000000000000000000000052
:100EA000646F6E27742066656564207468652062CF
:100EB00075677321000000000000000000000000C2
:100EC0000000000067E6096A85AE67BB72F36E3CFE
:100ED0003AF54FA57F520E518C68059BABD9831F05
:100EE00019CDE05B982F8A4291443771CFFBC0B592
:100EF000A5DBB5E95BC25639F111F159A4823F92E5
:100F0000D55E1CAB98AA07D8015B8312BE8531243D
:100F1000C37D0C55745DBE72FEB1DE80A706DC9BFE
:100F200074F19BC1C1699BE48647BEEFC69DC10FAA
:100F3000CCA10C246F2CE92DAA84744ADCA9B05CE6
:100F4000DA88F97652513E986DC631A8C82703B0A9
:100F5000C77F59BFF30BE0C64791A7D55163CA06B7
:100F600067292914850AB72738211B2EFC6D2C4DC3
:100F7000130D385354730A65BB0A6A762EC9C281B1
:100F8000852C7292A1E8BFA24B661AA8708B4BC247
:100F9000A3516CC719E892D1240699D685350EF471
:100FA00070A06A1016C1A419086C371E4C77482728
:100FB000B5BCB034B30C1C394AAAD84E4FCA9C5B9E
:100FC000F36F2E68EE828F746F63A5781478C884EF
:100FD0000802C78CFAFFBE90EB6C50A4F7A3F9BED1
:040FE000F27871C66C
:00000001FF
