:10000000E0030010090100002103000021030000AB
:10001000000000000000000000000000D5F4FFEF29
:1000200000000000000000000000000021030000AC
:100030000000000000000000210300002103000078
:100040002103000021030000210300002103000020
:100050002103000021030000210300002103000010
:10006000E90000002103000021030000210300003B
:1000700021030000210300002103000021030000F0
:1000800021030000210300002103000021030000E0
:1000900021030000210300002103000021030000D0
:1000A00021030000210300002103000021030000C0
:1000B00021030000210300002103000021030000B0
:1000C000E40F00000000001000000000E40F00003A
:1000D000E00300100000000000000010CC01000050
:1000E000E0030010000000000548064B026810B550
:1000F0001969D20702D50023984710BD5B69FBE759
:100100000000054000000010F8B572B61A4838210A
:100110000160144B144A15499A60154B8B4207D362
:10012000002014498B4211D362B600F06DFEFEE749
:1001300000221D685F689868BE18AC18904201D80C
:100140000C33EBE7246804323460F5E700221E68C4
:100150005C68B518944201D80833E3E7286004329C
:10016000F7E7C04600ED00E000000000D800000006
:10017000C0000000E80000002002004010B572B688
:10018000014B984762B610BDF11FFF1F70B50C0000
:1001900022718B6A15008A68002B1AD02A4218D067
:1001A000CA6A9847631D6169A269D87F00280BD18C
:1001B0002069002801D0002904D1E168002903D07A
:1001C000002A01D00122DA77FD23023D1D4000D133
:1001D000E56170BDF8B5802746683F028B69050070
:1001E0000C004B693E4203D04022FFF7CFFF6F6007
:1001F000F30541D57605B60F37D16B6CDAB2627173
:10020000DB071DD563692269002A01D0002B04D1C8
:10021000022221002800FFF7B9FF63692269002A42
:1002200001D0002B07D1022301222B6421002800DA
:10023000FFF7ACFF20E00322A31DDA770123F3E7E9
:10024000A369E268002A01D0002B04D10422210016
:100250002800FFF79BFFA269E16802230029E3D091
:10026000002AE1D0A21DD377E8E7A31DDB7FDBB234
:10027000022B02D0032B29D0F8BD012E44D1A36953
:10028000E268002A01D0002B04D1042221002800BA
:10029000FFF77CFFA369E268002A0FD0002B0DD086
:1002A0006A6CE3681A70A369013BA361E3680133D8
:1002B000E360E3690133E36101232B646369A269AD
:1002C0001343D9D1621DD3772022AFE70223022E38
:1002D0001AD163692269002A01D0002B04D10222BD
:1002E00021002800FFF752FF63692269002AE5D048
:1002F000002BE3D023691B786B646369013B636166
:10030000236901332361D4E72B64B5E703688B438A
:10031000036003680B43036003681942FCD0704715
:1003200072B600222021044B1A60044AD36F8B431B
:10033000D36720BFFDE7C0460000054004800440AD
:1003400030B5184B5A78542A22D11D7BFF24002D3A
:1003500002D1154C5434247801325A7005221C7194
:100360001A700A6881210902C160541D0433E57FB7
:100370001361012500235561D3609361D361663316
:100380009360643BE577036043684360816030BD00
:100390004F2A03D800241D7BA542DDD1024CA45C6A
:1003A000DAE7C0460000001048000010774BF7B5B0
:1003B00002001878052800D9B4E000F058FD0325A4
:1003C0003DA22E370879C0B2042817D18125002418
:1003D00009682D02D5604E1DF07F581C0C614C61E0
:1003E000C86001208861CC6166348C600221F0779E
:1003F00011605168187051609560F7BD022813D1E3
:100400001000FFF79DFFF8E70A79202A0CD15A78EF
:100410009A700022DA7002220CE00879C0B2022839
:10042000EED00022402805D0062203E00A79202AD7
:10043000FAD11C3A1A70E0E70879C0B204281DD13D
:100440009C785878001B03241C70812409682402BE
:10045000C0B2D46004304D1D1B18E87F0020086135
:100460004861CB6001238B61C86166308860EB779F
:10047000DB181360536853609460BEE74028D3D103
:1004800000240126DA780192019AA24202D80022C1
:10049000DA70CFE79A7819191219D2B210005338CE
:1004A00009790C2826D800F0E2FC07252525251A15
:1004B0001A1A1A15151515001A7B002A08D1344A84
:1004C0001E731170FF2233494A65BFF35F8F40BF2F
:1004D0000134D9E72F48875C39438154F8E72D4F21
:1004E000B818007984466546B85CA94328400143A2
:1004F000B954EDE7532AEBD8187B0028E8D12548FA
:10050000EBE70A79202A8FD107205A7899780132AF
:10051000521A02408A185A70DA78824200D97AE771
:10052000013277E70879C0B2042815D1812409681F
:100530002402D4604D1DE87F002008614861C86036
:100540008861C861463088600121E97749181160E7
:1005500051685160946067E7022800D061E7812507
:1005600009682D02D5604E1DF47F0B4C01270C61EC
:1005700000244F61CC608C61CC6146348C60F7778D
:1005800010605168516095604EE7C0460000001051
:100590009B00001048000010C00E0000502270B5F3
:1005A0000D4C0500521A0819002100F029FC230007
:1005B000220055331D7023005232127857331A70BF
:1005C0000023C322236554342270BFF35F8F034A94
:1005D0002800137370BDC0464800001000000010D2
:1005E00010B50021FFF7DAFF10BDF0B5644B93B0F2
:1005F0001A689C4605925A6806929A680792DA68C9
:1006000008921A6909925A690A929A690B92DA69F0
:10061000089B0C920E930C9B5A4A0D93079B0F92CA
:100620000293069B01930B9B04930A9B0393002365
:10063000099905980F241C4008345A1C10940F2B5C
:1006400000D96FE063461B6A1DBA109B4C4E9C009C
:10065000A55106230C000F00DC410533DF413B00B0
:100660000F0063401924E741049C7B40039F8C43A7
:100670000F407C401B190F9C80CCDF190D9B7F190C
:10068000FF180F94022304000500DC410B33DD4109
:1006900016236C400500DD41019B6C40029D6B40C0
:1006A00003400D93019D029B1D400D9B6B40E41880
:1006B0000E9BFD1804233F19049C9C440D94029C3E
:1006C00013000E94402A24D1059BDF19069B376046
:1006D000181870600198079B84466344A446B36071
:1006E000089B29486344F360099B5D190A9B3561A7
:1006F0005918716103990B9B8C46049963448C468D
:10070000B3610C9B00216344F36100F079FB13B0EB
:10071000F0BD019A01900292039A3800039104926D
:10072000290087E70F251540154F0835AD00EE5914
:100730001D000F240E35093325402340109C083539
:100740000833A400AD009B00ED59DB59E75907249D
:10075000DF193300E341119333000B34E341119C63
:10076000F60863407340FF1811242B001326E34161
:100770002C00F4412600AD0A5E4075407D1964E707
:1007800048010010E40E000068010010F7B50600F3
:100790000D00002D00D1F7BD3F230E4F2C00386E09
:1007A000184001331B1A01939D4200D91C000A4BCB
:1007B0002200C018310000F02BFB019B1B19402BBD
:1007C00001D1FFF712FF3B6E2D1B36191C193C6639
:1007D000DFE7C046480100106801001010B5FFF7C0
:1007E000D5FF10BD70B5094C094B2200043323CB53
:1007F00023C223CB23C203CB03C2402200210548DE
:1008000000F0FEFA0023236670BDC04648010010C8
:10081000C00E00006801001037B56B460500D81DFA
:10082000802301210370FFF7B1FF3F230F4C226E9D
:100830001340382B01D9FFF7D8FE236E013BDB00B4
:100840001BBAE365FFF7D1FE0022A358A9181BBA13
:10085000180AAB5448700432180C1B0E8870CB7009
:10086000202AF2D1FFF7BEFF37BDC0464801001075
:1008700070B50400FFF7D0FF084D20212800FFF7D6
:1008800085FF20212000FFF781FF2000FFF7C4FF34
:1008900028002022002100F0B3FA70BDAC01001046
:1008A00070B506000C00FFF79DFF184D202C1ED9D7
:1008B00030002100FFF76AFF2800FFF7ADFF2C0092
:1008C0002B00002136201A78013142401A70013382
:1008D0002029F8D12800FFF759FF00236A21227848
:1008E00001334A4022700134202BF8D170BD220020
:1008F0003100280000F08CFA20222000121B044C4A
:1009000064300019002100F07BFAD8E7AC01001038
:1009100048010010F0B58026E0220421D54F520096
:10092000FB6F03243343FB67D34BD44D985895B0EA
:100930000143995008219858014399508021FA6F3A
:10094000C900B243FA67FA6F3243FA67CC4A90693A
:10095000084390615069014351618021DA6989043B
:100960001202120A0A43FF21DA611A6AC5488A4351
:1009700022431A620122FB6F3100B343B936FB6791
:10098000FF36AB599343AB51AB5992189343AB51DC
:10099000AB591E3293430022AB51BB4B1A60AB598B
:1009A0000B43AB512B6C2A6CA343134321002B64E4
:1009B000FFF7ACFC2B6C23402C00002B03D0012B49
:1009C00000D1AB59FFDE7F22AB6893431A0060234E
:1009D00013438022AB60AB599343AB510123E268D0
:1009E0001A42FCD00322236F134206D0236F012149
:1009F00093432367A548FFF789FC0026A44B0121F8
:100A00001E60A448FFF782FCFF22A36FA24D934310
:100A1000FE3A1343A3672023F96F0B43FB67402380
:100A200061689E4F99436160616819436160032169
:100A30002C0079611834BB643E3BFA6431003A659E
:100A400020007A65BE652F323B6000F0D9F9944BE7
:100A500080222B642B003D331E70924B6E646B61C1
:100A600081231B02AC612C618F4CFB608F4B5200C9
:100A70001A603100200000F0C3F93A2326000AA9C9
:100A800005A80593FFF77AFB2000210022000B9BAD
:100A9000F03633600C9BF43003600D9BF8310B6033
:100AA0000E9BFC3213600A9B0092002B09D0804AF7
:100AB000934206D00123009A5B42336003600B60CF
:100AC0001360C323543481222900237000231202AF
:100AD0003C312B73FA603B600B702B70EB626B70D8
:100AE0002B63FA600878AB62EB626B622B636B631B
:100AF00007332B62063B0B7001333B607B687B60E6
:100B00006C4BBA609B0901936A4B9B0A00932B7B49
:100B1000002B0DD0644C230053331878C02800D12B
:100B200095E007D800282FD0A02827D0E2202BE07E
:100B300020BFECE7F52800D100E1FA2800D1C3E09E
:100B4000E028F3D1230050331E78022E1BD8230057
:100B500051331F78502F16D8760190363619FFF78B
:100B600041FE20213000FFF711FE20003900FFF781
:100B70000DFE3000FFF750FE002005E0230051334A
:100B80001F78502F03D9E120FFF72AFDBFE720216E
:100B900023004848503340181E78FFF781FE72B694
:100BA000454B0B960A9373B20CA9002B0FDA230066
:100BB000F0331B6810A90C932300F4331B680D93CA
:100BC0002300F8331B68FC340E9323680F937306DD
:100BD00005D5354B9A6DDB6D0A604B600831324CA0
:100BE000B30601D5636E08C1F30602D52E4B1B6E0A
:100BF00008C162B60AA8091AFFF7C8FDF30703D5B2
:100C000020212E48FFF7C2FDB30703D520212C4831
:100C1000FFF7BCFD730703D520212A48FFF7B6FD77
:100C200020003900FFF7B2FD2000FFF721FE730717
:100C300008D5FFF7D7FD20002021FFF7A7FD1F48AB
:100C4000FFF7EAFD20210020FFF7A8FC5FE7230063
:100C500050331B78012B96D8183322009B0019596A
:100C60005132C8431278824201D9E3208CE75218EE
:100C70001A5181E70480044000C000400080044015
:100C8000004004404480044040800440748004409C
:100C9000E0800440E48004400000001000000540B3
:100CA000AD030000D50100004800001000E100E0A5
:100CB00028D8FFFF800E000071756F74D8000010F7
:100CC000F800001018010010230050331B78692B26
:100CD00000D058E7230051331B78732B00D052E724
:100CE00052342378702B00D04DE772B603AC373BFB
:100CF000082200212000059300F082F80122A1794A
:100D0000237805A84B40A17862704B40E1784B40B6
:100D100021794B40617906944B4053400AA9E37115
:100D2000FFF72CFA00230A9A9A4201D02F4BD318CE
:100D30002F4A136062B60421E42085E72300503374
:100D40001B786E2B00D01EE7230051331B78762BC7
:100D500000D018E7230052331B78212B00D012E774
:100D600011330593009B0AA905A806930793FFF783
:100D700005FA0A9B002B02D01E4A934233D13B2333
:100D80001D4E0593019B0AA905A806930793089693
:100D9000FFF7F4F90A9B002B02D0164A934222D1A6
:100DA00032230593009B0AA905A806930793FFF732
:100DB000E5F90A9B002B02D00E4A934213D133234C
:100DC00005930E4B0AA90693402305A808930794A0
:100DD0000996FFF7D3F90A9B002B00D1CCE6054A10
:100DE000934200D1C8E6E420CEE6C046D8270000F2
:100DF0004800001028D8FFFFE02E0000800E000001
:100E000010B500F01FF810BD10B5FFF783FD10BD41
:100E100010B500F001F810BD8446830708D18B0798
:100E200006D1131F04D304C904C0043BFBD21A1D0E
:100E3000524205D0891A801A8B5C83540132FBD14F
:100E4000604670478446043A09D3830707D10906F0
:100E50000B0A19430B0C1943043A02C0FCD20432AA
:100E600003D001700130013AFBD1604670478C46D7
:100E700071460139095C49008E4461467047FFFFA5
:100E800055EECCAA000000000000000000000000A9
:100E90000000000000000000000000000000000052
:100EA000646F6E27742066656564207468652062CF
:100EB00075677321000000000000000000000000C2
:100EC0000000000067E6096A85AE67BB72F36E3CFE
:100ED0003AF54FA57F520E518C68059BABD9831F05
:100EE00019CDE05B982F8A4291443771CFFBC0B592
:100EF000A5DBB5E95BC25639F111F159A4823F92E5
:100F0000D55E1CAB98AA07D8015B8312BE8531243D
:100F1000C37D0C55745DBE72FEB1DE80A706DC9BFE
:100F200074F19BC1C1699BE48647BEEFC69DC10FAA
:100F3000CCA10C246F2CE92DAA84744ADCA9B05CE6
:100F4000DA88F97652513E986DC631A8C82703B0A9
:100F5000C77F59BFF30BE0C64791A7D55163CA06B7
:100F600067292914850AB72738211B2EFC6D2C4DC3
:100F7000130D385354730A65BB0A6A762EC9C281B1
:100F8000852C7292A1E8BFA24B661AA8708B4BC247
:100F9000A3516CC719E892D1240699D685350EF471
:100FA00070A06A1016C1A419086C371E4C77482728
:100FB000B5BCB034B30C1C394AAAD84E4FCA9C5B9E
:100FC000F36F2E68EE828F746F63A5781478C884EF
:100FD0000802C78CFAFFBE90EB6C50A4F7A3F9BED1
:040FE000F27871C66C
:00000001FF
